{
  "contractName": "NegocioFidelizado",
  "abi": [
    {
      "inputs": [
        {
          "internalType": "string",
          "name": "name_",
          "type": "string"
        },
        {
          "internalType": "string",
          "name": "symbol_",
          "type": "string"
        },
        {
          "internalType": "uint256",
          "name": "totalSupply_",
          "type": "uint256"
        }
      ],
      "stateMutability": "nonpayable",
      "type": "constructor"
    },
    {
      "anonymous": false,
      "inputs": [
        {
          "indexed": true,
          "internalType": "address",
          "name": "owner",
          "type": "address"
        },
        {
          "indexed": true,
          "internalType": "address",
          "name": "spender",
          "type": "address"
        },
        {
          "indexed": false,
          "internalType": "uint256",
          "name": "value",
          "type": "uint256"
        }
      ],
      "name": "Approval",
      "type": "event"
    },
    {
      "anonymous": false,
      "inputs": [
        {
          "indexed": false,
          "internalType": "address",
          "name": "",
          "type": "address"
        }
      ],
      "name": "NuevoCajero",
      "type": "event"
    },
    {
      "anonymous": false,
      "inputs": [
        {
          "indexed": true,
          "internalType": "address",
          "name": "from",
          "type": "address"
        },
        {
          "indexed": true,
          "internalType": "address",
          "name": "to",
          "type": "address"
        },
        {
          "indexed": false,
          "internalType": "uint256",
          "name": "value",
          "type": "uint256"
        }
      ],
      "name": "Transfer",
      "type": "event"
    },
    {
      "inputs": [],
      "name": "AddContrract",
      "outputs": [
        {
          "internalType": "address",
          "name": "",
          "type": "address"
        }
      ],
      "stateMutability": "view",
      "type": "function",
      "constant": true
    },
    {
      "inputs": [
        {
          "internalType": "address",
          "name": "owner",
          "type": "address"
        },
        {
          "internalType": "address",
          "name": "spender",
          "type": "address"
        }
      ],
      "name": "allowance",
      "outputs": [
        {
          "internalType": "uint256",
          "name": "",
          "type": "uint256"
        }
      ],
      "stateMutability": "view",
      "type": "function",
      "constant": true
    },
    {
      "inputs": [
        {
          "internalType": "address",
          "name": "spender",
          "type": "address"
        },
        {
          "internalType": "uint256",
          "name": "amount",
          "type": "uint256"
        }
      ],
      "name": "approve",
      "outputs": [
        {
          "internalType": "bool",
          "name": "",
          "type": "bool"
        }
      ],
      "stateMutability": "nonpayable",
      "type": "function"
    },
    {
      "inputs": [
        {
          "internalType": "address",
          "name": "account",
          "type": "address"
        }
      ],
      "name": "balanceOf",
      "outputs": [
        {
          "internalType": "uint256",
          "name": "",
          "type": "uint256"
        }
      ],
      "stateMutability": "view",
      "type": "function",
      "constant": true
    },
    {
      "inputs": [],
      "name": "decimals",
      "outputs": [
        {
          "internalType": "uint8",
          "name": "",
          "type": "uint8"
        }
      ],
      "stateMutability": "view",
      "type": "function",
      "constant": true
    },
    {
      "inputs": [
        {
          "internalType": "address",
          "name": "spender",
          "type": "address"
        },
        {
          "internalType": "uint256",
          "name": "subtractedValue",
          "type": "uint256"
        }
      ],
      "name": "decreaseAllowance",
      "outputs": [
        {
          "internalType": "bool",
          "name": "",
          "type": "bool"
        }
      ],
      "stateMutability": "nonpayable",
      "type": "function"
    },
    {
      "inputs": [
        {
          "internalType": "address",
          "name": "spender",
          "type": "address"
        },
        {
          "internalType": "uint256",
          "name": "addedValue",
          "type": "uint256"
        }
      ],
      "name": "increaseAllowance",
      "outputs": [
        {
          "internalType": "bool",
          "name": "",
          "type": "bool"
        }
      ],
      "stateMutability": "nonpayable",
      "type": "function"
    },
    {
      "inputs": [],
      "name": "name",
      "outputs": [
        {
          "internalType": "string",
          "name": "",
          "type": "string"
        }
      ],
      "stateMutability": "view",
      "type": "function",
      "constant": true
    },
    {
      "inputs": [],
      "name": "symbol",
      "outputs": [
        {
          "internalType": "string",
          "name": "",
          "type": "string"
        }
      ],
      "stateMutability": "view",
      "type": "function",
      "constant": true
    },
    {
      "inputs": [],
      "name": "totalSupply",
      "outputs": [
        {
          "internalType": "uint256",
          "name": "",
          "type": "uint256"
        }
      ],
      "stateMutability": "view",
      "type": "function",
      "constant": true
    },
    {
      "inputs": [
        {
          "internalType": "address",
          "name": "to",
          "type": "address"
        },
        {
          "internalType": "uint256",
          "name": "amount",
          "type": "uint256"
        }
      ],
      "name": "transfer",
      "outputs": [
        {
          "internalType": "bool",
          "name": "",
          "type": "bool"
        }
      ],
      "stateMutability": "nonpayable",
      "type": "function"
    },
    {
      "inputs": [
        {
          "internalType": "address",
          "name": "from",
          "type": "address"
        },
        {
          "internalType": "address",
          "name": "to",
          "type": "address"
        },
        {
          "internalType": "uint256",
          "name": "amount",
          "type": "uint256"
        }
      ],
      "name": "transferFrom",
      "outputs": [
        {
          "internalType": "bool",
          "name": "",
          "type": "bool"
        }
      ],
      "stateMutability": "nonpayable",
      "type": "function"
    },
    {
      "inputs": [],
      "name": "addMaestro",
      "outputs": [
        {
          "internalType": "address",
          "name": "",
          "type": "address"
        }
      ],
      "stateMutability": "view",
      "type": "function",
      "constant": true
    },
    {
      "inputs": [],
      "name": "addNegocio",
      "outputs": [
        {
          "internalType": "address",
          "name": "",
          "type": "address"
        }
      ],
      "stateMutability": "view",
      "type": "function",
      "constant": true
    },
    {
      "inputs": [
        {
          "internalType": "uint256",
          "name": "numTokens",
          "type": "uint256"
        }
      ],
      "name": "CalculeCostoTokens",
      "outputs": [
        {
          "internalType": "uint256",
          "name": "",
          "type": "uint256"
        }
      ],
      "stateMutability": "pure",
      "type": "function",
      "constant": true
    },
    {
      "inputs": [
        {
          "internalType": "uint256",
          "name": "numTokens",
          "type": "uint256"
        }
      ],
      "name": "crearTokens",
      "outputs": [],
      "stateMutability": "payable",
      "type": "function",
      "payable": true
    },
    {
      "inputs": [
        {
          "internalType": "address",
          "name": "_addCajero",
          "type": "address"
        }
      ],
      "name": "_AsigarCajero",
      "outputs": [],
      "stateMutability": "nonpayable",
      "type": "function"
    },
    {
      "inputs": [
        {
          "internalType": "address[]",
          "name": "_addCajeros",
          "type": "address[]"
        }
      ],
      "name": "RegistroMultipleDeCajeros",
      "outputs": [],
      "stateMutability": "nonpayable",
      "type": "function"
    },
    {
      "inputs": [],
      "name": "SaldoNegocio",
      "outputs": [
        {
          "internalType": "uint256",
          "name": "",
          "type": "uint256"
        }
      ],
      "stateMutability": "view",
      "type": "function",
      "constant": true
    }
  ],
  "bytecode": "0x60806040523480156200001157600080fd5b50604051620023d7380380620023d7833981810160405281019062000037919062000451565b82828233836004908051906020019062000053929190620001c9565b5080600360006101000a81548173ffffffffffffffffffffffffffffffffffffffff021916908373ffffffffffffffffffffffffffffffffffffffff1602179055508260059080519060200190620000ad929190620001c9565b508160028190555081600080600360009054906101000a900473ffffffffffffffffffffffffffffffffffffffff1673ffffffffffffffffffffffffffffffffffffffff1673ffffffffffffffffffffffffffffffffffffffff168152602001908152602001600020819055505050505030600760006101000a81548173ffffffffffffffffffffffffffffffffffffffff021916908373ffffffffffffffffffffffffffffffffffffffff160217905550826008908051906020019062000177929190620001c9565b508060098190555033600660006101000a81548173ffffffffffffffffffffffffffffffffffffffff021916908373ffffffffffffffffffffffffffffffffffffffff16021790555050505062000550565b828054620001d7906200051a565b90600052602060002090601f016020900481019282620001fb576000855562000247565b82601f106200021657805160ff191683800117855562000247565b8280016001018555821562000247579182015b828111156200024657825182559160200191906001019062000229565b5b5090506200025691906200025a565b5090565b5b80821115620002755760008160009055506001016200025b565b5090565b6000604051905090565b600080fd5b600080fd5b600080fd5b600080fd5b6000601f19601f8301169050919050565b7f4e487b7100000000000000000000000000000000000000000000000000000000600052604160045260246000fd5b620002e28262000297565b810181811067ffffffffffffffff82111715620003045762000303620002a8565b5b80604052505050565b60006200031962000279565b9050620003278282620002d7565b919050565b600067ffffffffffffffff8211156200034a5762000349620002a8565b5b620003558262000297565b9050602081019050919050565b60005b838110156200038257808201518184015260208101905062000365565b8381111562000392576000848401525b50505050565b6000620003af620003a9846200032c565b6200030d565b905082815260208101848484011115620003ce57620003cd62000292565b5b620003db84828562000362565b509392505050565b600082601f830112620003fb57620003fa6200028d565b5b81516200040d84826020860162000398565b91505092915050565b6000819050919050565b6200042b8162000416565b81146200043757600080fd5b50565b6000815190506200044b8162000420565b92915050565b6000806000606084860312156200046d576200046c62000283565b5b600084015167ffffffffffffffff8111156200048e576200048d62000288565b5b6200049c86828701620003e3565b935050602084015167ffffffffffffffff811115620004c057620004bf62000288565b5b620004ce86828701620003e3565b9250506040620004e1868287016200043a565b9150509250925092565b7f4e487b7100000000000000000000000000000000000000000000000000000000600052602260045260246000fd5b600060028204905060018216806200053357607f821691505b602082108114156200054a5762000549620004eb565b5b50919050565b611e7780620005606000396000f3fe6080604052600436106101145760003560e01c80635a0c232e116100a0578063a457c2d711610064578063a457c2d7146103cb578063a9059cbb14610408578063ca67c15914610445578063dd62ed3e14610461578063e01a1b8c1461049e57610114565b80635a0c232e146102d057806370a08231146102fb578063813ca0a314610338578063933eedbd1461036357806395d89b41146103a057610114565b806323b872dd116100e757806323b872dd146101d7578063313ce56714610214578063395093511461023f57806345e0397c1461027c57806359939ebe146102a557610114565b806306cc3e1c1461011957806306fdde0314610144578063095ea7b31461016f57806318160ddd146101ac575b600080fd5b34801561012557600080fd5b5061012e6104c7565b60405161013b91906112d1565b60405180910390f35b34801561015057600080fd5b506101596104f1565b6040516101669190611385565b60405180910390f35b34801561017b57600080fd5b506101966004803603810190610191919061141d565b610583565b6040516101a39190611478565b60405180910390f35b3480156101b857600080fd5b506101c16105a6565b6040516101ce91906114a2565b60405180910390f35b3480156101e357600080fd5b506101fe60048036038101906101f991906114bd565b6105b0565b60405161020b9190611478565b60405180910390f35b34801561022057600080fd5b506102296105df565b604051610236919061152c565b60405180910390f35b34801561024b57600080fd5b506102666004803603810190610261919061141d565b6105e8565b6040516102739190611478565b60405180910390f35b34801561028857600080fd5b506102a3600480360381019061029e919061168f565b61061f565b005b3480156102b157600080fd5b506102ba610695565b6040516102c791906112d1565b60405180910390f35b3480156102dc57600080fd5b506102e561069d565b6040516102f291906114a2565b60405180910390f35b34801561030757600080fd5b50610322600480360381019061031d91906116d8565b6106cf565b60405161032f91906114a2565b60405180910390f35b34801561034457600080fd5b5061034d610717565b60405161035a91906112d1565b60405180910390f35b34801561036f57600080fd5b5061038a60048036038101906103859190611705565b610741565b60405161039791906114a2565b60405180910390f35b3480156103ac57600080fd5b506103b561076c565b6040516103c29190611385565b60405180910390f35b3480156103d757600080fd5b506103f260048036038101906103ed919061141d565b6107fe565b6040516103ff9190611478565b60405180910390f35b34801561041457600080fd5b5061042f600480360381019061042a919061141d565b610875565b60405161043c9190611478565b60405180910390f35b61045f600480360381019061045a9190611705565b610898565b005b34801561046d57600080fd5b5061048860048036038101906104839190611732565b61095a565b60405161049591906114a2565b60405180910390f35b3480156104aa57600080fd5b506104c560048036038101906104c091906116d8565b6109e1565b005b6000600760009054906101000a900473ffffffffffffffffffffffffffffffffffffffff16905090565b606060048054610500906117a1565b80601f016020809104026020016040519081016040528092919081815260200182805461052c906117a1565b80156105795780601f1061054e57610100808354040283529160200191610579565b820191906000526020600020905b81548152906001019060200180831161055c57829003601f168201915b5050505050905090565b60008061058e610bb5565b905061059b818585610bbd565b600191505092915050565b6000600254905090565b6000806105bb610bb5565b90506105c8858285610d88565b6105d3858585610e14565b60019150509392505050565b60006012905090565b6000806105f3610bb5565b9050610614818585610605858961095a565b61060f9190611802565b610bbd565b600191505092915050565b60005b81518160ff16101561069157610654828260ff168151811061064757610646611858565b5b60200260200101516109e1565b61067d828260ff168151811061066d5761066c611858565b5b60200260200101516103e8610875565b50808061068990611887565b915050610622565b5050565b600030905090565b60006106ca600660009054906101000a900473ffffffffffffffffffffffffffffffffffffffff166106cf565b905090565b60008060008373ffffffffffffffffffffffffffffffffffffffff1673ffffffffffffffffffffffffffffffffffffffff168152602001908152602001600020549050919050565b6000600660009054906101000a900473ffffffffffffffffffffffffffffffffffffffff16905090565b6000620186a082674563918244f4000061075b91906118b1565b610765919061193a565b9050919050565b60606005805461077b906117a1565b80601f01602080910402602001604051908101604052809291908181526020018280546107a7906117a1565b80156107f45780601f106107c9576101008083540402835291602001916107f4565b820191906000526020600020905b8154815290600101906020018083116107d757829003601f168201915b5050505050905090565b600080610809610bb5565b90506000610817828661095a565b90508381101561085c576040517f08c379a0000000000000000000000000000000000000000000000000000000008152600401610853906119dd565b60405180910390fd5b6108698286868403610bbd565b60019250505092915050565b600080610880610bb5565b905061088d818585610e14565b600191505092915050565b33600660009054906101000a900473ffffffffffffffffffffffffffffffffffffffff1673ffffffffffffffffffffffffffffffffffffffff168173ffffffffffffffffffffffffffffffffffffffff1614610929576040517f08c379a000000000000000000000000000000000000000000000000000000000815260040161092090611a6f565b60405180910390fd5b61271082101561093857600080fd5b61094182610741565b341461094c57600080fd5b610956338361108c565b5050565b6000600160008473ffffffffffffffffffffffffffffffffffffffff1673ffffffffffffffffffffffffffffffffffffffff16815260200190815260200160002060008373ffffffffffffffffffffffffffffffffffffffff1673ffffffffffffffffffffffffffffffffffffffff16815260200190815260200160002054905092915050565b33600660009054906101000a900473ffffffffffffffffffffffffffffffffffffffff1673ffffffffffffffffffffffffffffffffffffffff168173ffffffffffffffffffffffffffffffffffffffff1614610a72576040517f08c379a0000000000000000000000000000000000000000000000000000000008152600401610a6990611a6f565b60405180910390fd5b604051806060016040528060088054610a8a906117a1565b80601f0160208091040260200160405190810160405280929190818152602001828054610ab6906117a1565b8015610b035780601f10610ad857610100808354040283529160200191610b03565b820191906000526020600020905b815481529060010190602001808311610ae657829003601f168201915b505050505081526020016000815260200160011515815250600b60008473ffffffffffffffffffffffffffffffffffffffff1673ffffffffffffffffffffffffffffffffffffffff1681526020019081526020016000206000820151816000019080519060200190610b769291906111ed565b506020820151816001015560408201518160020160006101000a81548160ff021916908315150217905550905050610bb0826103e8610875565b505050565b600033905090565b600073ffffffffffffffffffffffffffffffffffffffff168373ffffffffffffffffffffffffffffffffffffffff161415610c2d576040517f08c379a0000000000000000000000000000000000000000000000000000000008152600401610c2490611b01565b60405180910390fd5b600073ffffffffffffffffffffffffffffffffffffffff168273ffffffffffffffffffffffffffffffffffffffff161415610c9d576040517f08c379a0000000000000000000000000000000000000000000000000000000008152600401610c9490611b93565b60405180910390fd5b80600160008573ffffffffffffffffffffffffffffffffffffffff1673ffffffffffffffffffffffffffffffffffffffff16815260200190815260200160002060008473ffffffffffffffffffffffffffffffffffffffff1673ffffffffffffffffffffffffffffffffffffffff168152602001908152602001600020819055508173ffffffffffffffffffffffffffffffffffffffff168373ffffffffffffffffffffffffffffffffffffffff167f8c5be1e5ebec7d5bd14f71427d1e84f3dd0314c0f7b2291e5b200ac8c7c3b92583604051610d7b91906114a2565b60405180910390a3505050565b6000610d94848461095a565b90507fffffffffffffffffffffffffffffffffffffffffffffffffffffffffffffffff8114610e0e5781811015610e00576040517f08c379a0000000000000000000000000000000000000000000000000000000008152600401610df790611bff565b60405180910390fd5b610e0d8484848403610bbd565b5b50505050565b600073ffffffffffffffffffffffffffffffffffffffff168373ffffffffffffffffffffffffffffffffffffffff161415610e84576040517f08c379a0000000000000000000000000000000000000000000000000000000008152600401610e7b90611c91565b60405180910390fd5b600073ffffffffffffffffffffffffffffffffffffffff168273ffffffffffffffffffffffffffffffffffffffff161415610ef4576040517f08c379a0000000000000000000000000000000000000000000000000000000008152600401610eeb90611d23565b60405180910390fd5b610eff8383836111e3565b60008060008573ffffffffffffffffffffffffffffffffffffffff1673ffffffffffffffffffffffffffffffffffffffff16815260200190815260200160002054905081811015610f85576040517f08c379a0000000000000000000000000000000000000000000000000000000008152600401610f7c90611db5565b60405180910390fd5b8181036000808673ffffffffffffffffffffffffffffffffffffffff1673ffffffffffffffffffffffffffffffffffffffff16815260200190815260200160002081905550816000808573ffffffffffffffffffffffffffffffffffffffff1673ffffffffffffffffffffffffffffffffffffffff168152602001908152602001600020600082825401925050819055508273ffffffffffffffffffffffffffffffffffffffff168473ffffffffffffffffffffffffffffffffffffffff167fddf252ad1be2c89b69c2b068fc378daa952ba7f163c4a11628f55a4df523b3ef8460405161107391906114a2565b60405180910390a36110868484846111e8565b50505050565b600073ffffffffffffffffffffffffffffffffffffffff168273ffffffffffffffffffffffffffffffffffffffff1614156110fc576040517f08c379a00000000000000000000000000000000000000000000000000000000081526004016110f390611e21565b60405180910390fd5b611108600083836111e3565b806002600082825461111a9190611802565b92505081905550806000808473ffffffffffffffffffffffffffffffffffffffff1673ffffffffffffffffffffffffffffffffffffffff168152602001908152602001600020600082825401925050819055508173ffffffffffffffffffffffffffffffffffffffff16600073ffffffffffffffffffffffffffffffffffffffff167fddf252ad1be2c89b69c2b068fc378daa952ba7f163c4a11628f55a4df523b3ef836040516111cb91906114a2565b60405180910390a36111df600083836111e8565b5050565b505050565b505050565b8280546111f9906117a1565b90600052602060002090601f01602090048101928261121b5760008555611262565b82601f1061123457805160ff1916838001178555611262565b82800160010185558215611262579182015b82811115611261578251825591602001919060010190611246565b5b50905061126f9190611273565b5090565b5b8082111561128c576000816000905550600101611274565b5090565b600073ffffffffffffffffffffffffffffffffffffffff82169050919050565b60006112bb82611290565b9050919050565b6112cb816112b0565b82525050565b60006020820190506112e660008301846112c2565b92915050565b600081519050919050565b600082825260208201905092915050565b60005b8381101561132657808201518184015260208101905061130b565b83811115611335576000848401525b50505050565b6000601f19601f8301169050919050565b6000611357826112ec565b61136181856112f7565b9350611371818560208601611308565b61137a8161133b565b840191505092915050565b6000602082019050818103600083015261139f818461134c565b905092915050565b6000604051905090565b600080fd5b600080fd5b6113c4816112b0565b81146113cf57600080fd5b50565b6000813590506113e1816113bb565b92915050565b6000819050919050565b6113fa816113e7565b811461140557600080fd5b50565b600081359050611417816113f1565b92915050565b60008060408385031215611434576114336113b1565b5b6000611442858286016113d2565b925050602061145385828601611408565b9150509250929050565b60008115159050919050565b6114728161145d565b82525050565b600060208201905061148d6000830184611469565b92915050565b61149c816113e7565b82525050565b60006020820190506114b76000830184611493565b92915050565b6000806000606084860312156114d6576114d56113b1565b5b60006114e4868287016113d2565b93505060206114f5868287016113d2565b925050604061150686828701611408565b9150509250925092565b600060ff82169050919050565b61152681611510565b82525050565b6000602082019050611541600083018461151d565b92915050565b600080fd5b7f4e487b7100000000000000000000000000000000000000000000000000000000600052604160045260246000fd5b6115848261133b565b810181811067ffffffffffffffff821117156115a3576115a261154c565b5b80604052505050565b60006115b66113a7565b90506115c2828261157b565b919050565b600067ffffffffffffffff8211156115e2576115e161154c565b5b602082029050602081019050919050565b600080fd5b600061160b611606846115c7565b6115ac565b9050808382526020820190506020840283018581111561162e5761162d6115f3565b5b835b81811015611657578061164388826113d2565b845260208401935050602081019050611630565b5050509392505050565b600082601f83011261167657611675611547565b5b81356116868482602086016115f8565b91505092915050565b6000602082840312156116a5576116a46113b1565b5b600082013567ffffffffffffffff8111156116c3576116c26113b6565b5b6116cf84828501611661565b91505092915050565b6000602082840312156116ee576116ed6113b1565b5b60006116fc848285016113d2565b91505092915050565b60006020828403121561171b5761171a6113b1565b5b600061172984828501611408565b91505092915050565b60008060408385031215611749576117486113b1565b5b6000611757858286016113d2565b9250506020611768858286016113d2565b9150509250929050565b7f4e487b7100000000000000000000000000000000000000000000000000000000600052602260045260246000fd5b600060028204905060018216806117b957607f821691505b602082108114156117cd576117cc611772565b5b50919050565b7f4e487b7100000000000000000000000000000000000000000000000000000000600052601160045260246000fd5b600061180d826113e7565b9150611818836113e7565b9250827fffffffffffffffffffffffffffffffffffffffffffffffffffffffffffffffff0382111561184d5761184c6117d3565b5b828201905092915050565b7f4e487b7100000000000000000000000000000000000000000000000000000000600052603260045260246000fd5b600061189282611510565b915060ff8214156118a6576118a56117d3565b5b600182019050919050565b60006118bc826113e7565b91506118c7836113e7565b9250817fffffffffffffffffffffffffffffffffffffffffffffffffffffffffffffffff0483118215151615611900576118ff6117d3565b5b828202905092915050565b7f4e487b7100000000000000000000000000000000000000000000000000000000600052601260045260246000fd5b6000611945826113e7565b9150611950836113e7565b9250826119605761195f61190b565b5b828204905092915050565b7f45524332303a2064656372656173656420616c6c6f77616e63652062656c6f7760008201527f207a65726f000000000000000000000000000000000000000000000000000000602082015250565b60006119c76025836112f7565b91506119d28261196b565b604082019050919050565b600060208201905081810360008301526119f6816119ba565b9050919050565b7f536f6c6f20656c204d61657374726f207075656465207265616c697a6172206c60008201527f61206f7065726163696f6e2e0000000000000000000000000000000000000000602082015250565b6000611a59602c836112f7565b9150611a64826119fd565b604082019050919050565b60006020820190508181036000830152611a8881611a4c565b9050919050565b7f45524332303a20617070726f76652066726f6d20746865207a65726f2061646460008201527f7265737300000000000000000000000000000000000000000000000000000000602082015250565b6000611aeb6024836112f7565b9150611af682611a8f565b604082019050919050565b60006020820190508181036000830152611b1a81611ade565b9050919050565b7f45524332303a20617070726f766520746f20746865207a65726f20616464726560008201527f7373000000000000000000000000000000000000000000000000000000000000602082015250565b6000611b7d6022836112f7565b9150611b8882611b21565b604082019050919050565b60006020820190508181036000830152611bac81611b70565b9050919050565b7f45524332303a20696e73756666696369656e7420616c6c6f77616e6365000000600082015250565b6000611be9601d836112f7565b9150611bf482611bb3565b602082019050919050565b60006020820190508181036000830152611c1881611bdc565b9050919050565b7f45524332303a207472616e736665722066726f6d20746865207a65726f20616460008201527f6472657373000000000000000000000000000000000000000000000000000000602082015250565b6000611c7b6025836112f7565b9150611c8682611c1f565b604082019050919050565b60006020820190508181036000830152611caa81611c6e565b9050919050565b7f45524332303a207472616e7366657220746f20746865207a65726f206164647260008201527f6573730000000000000000000000000000000000000000000000000000000000602082015250565b6000611d0d6023836112f7565b9150611d1882611cb1565b604082019050919050565b60006020820190508181036000830152611d3c81611d00565b9050919050565b7f45524332303a207472616e7366657220616d6f756e742065786365656473206260008201527f616c616e63650000000000000000000000000000000000000000000000000000602082015250565b6000611d9f6026836112f7565b9150611daa82611d43565b604082019050919050565b60006020820190508181036000830152611dce81611d92565b9050919050565b7f45524332303a206d696e7420746f20746865207a65726f206164647265737300600082015250565b6000611e0b601f836112f7565b9150611e1682611dd5565b602082019050919050565b60006020820190508181036000830152611e3a81611dfe565b905091905056fea2646970667358221220f9839caa3f6aad4c97313b7bb3f2b48ab74428be65e831aafa7f6cfc97f6639964736f6c63430008080033",
  "immutableReferences": {},
  "source": "// SPDX-License-Identifier: MIT\n\npragma solidity >=0.7.0 <0.9.0;\nimport \"./ERC20.sol\";\n\n// Contrato autogestionable por fidelizame\ncontract NegocioFidelizado is ERC20 {\n    // Direcciones iniciales\n    address private _addMaestro;\n    address private _addNegocio;\n    string private _NombreDelNegocio;\n    uint256 private _totalSupply;\n\n    // Constructor del Smart Contract\n    constructor(\n        string memory name_,\n        string memory symbol_,\n        uint256 totalSupply_\n    )\n        // address direccion_\n        ERC20(name_, symbol_, totalSupply_, msg.sender)\n    {\n        _addNegocio = address(this);\n        _NombreDelNegocio = name_;\n        _totalSupply = totalSupply_;\n        _addMaestro = msg.sender;\n    }\n\n    // Get Variables\n    function addMaestro() public view virtual returns (address) {\n        return _addMaestro;\n    }\n\n    function addNegocio() public view virtual returns (address) {\n        return _addNegocio;\n    }\n\n    //--------------------------------------------------SUPPLY----------------------------------------\n\n    // Costo por TOKENS\n    // Por cada 10k tokens se pagar 0.5 BNB\n    function CalculeCostoTokens(uint256 numTokens)\n        public\n        pure\n        returns (uint256)\n    {\n        return (5000000000000000000 * numTokens) / (100000);\n        // return (5000 * numTokens) / (100000);\n    }\n\n    // Creacion de nuevos Tokens\n\n    function crearTokens(uint256 numTokens)\n        public\n        payable\n        UnicamenteaddMaestro(msg.sender)\n    {\n        // Mayor a 10 tokens\n        require(numTokens >= 10000);\n        require(msg.value == CalculeCostoTokens(numTokens));\n        _mint(msg.sender, numTokens);\n    }\n\n    //--------------------------------------------------BASE DE DATOS---------------------------------\n    struct usuarios {\n        string tienda;\n        uint256 num_usos;\n        bool operativo;\n        //data extra\n    }\n\n    struct cajero {\n        string tienda;\n        uint256 users_atendidos;\n        bool operativo;\n        //data extra\n    }\n\n    mapping(address => usuarios) private _usuarios;\n    mapping(address => cajero) private _cajeros;\n\n    //--------------------------------------------------EVENTOS----------------------------------------\n    event NuevoCajero(address);\n\n    //--------------------------------------------------MODIFICADORES----------------------------------------\n\n    // Modificador para hacer funciones solamente accesibles por el owner del contrato\n    modifier UnicamenteCajero(address _direccion) {\n        require(\n            _cajeros[_direccion].operativo == false,\n            \"Solo cajeros pueden realizar la operacion.\"\n        );\n\n        _;\n    }\n\n    modifier UnicamenteaddMaestro(address _direccion) {\n        require(\n            _direccion == _addMaestro,\n            \"Solo el Maestro puede realizar la operacion.\"\n        );\n        _;\n    }\n\n    //--------------------------------------------------FUNCIONES----------------------------------------\n    // Asignar Cajeros\n    function _AsigarCajero(address _addCajero)\n        public\n        UnicamenteaddMaestro(msg.sender)\n    {\n        _cajeros[_addCajero] = cajero(_NombreDelNegocio, 0, true);\n        transfer(_addCajero, 1000);\n    }\n\n    // Registrar multiples cajeros\n    function RegistroMultipleDeCajeros(address[] memory _addCajeros) public {\n        for (uint8 i = 0; i < _addCajeros.length; i++) {\n            _AsigarCajero(_addCajeros[i]);\n            transfer(_addCajeros[i], 1000);\n        }\n    }\n\n    // Puntos del negocio\n    function SaldoNegocio() public view returns (uint256) {\n        return balanceOf(_addMaestro);\n    }\n\n    //transfer\n}\n",
  "sourcePath": "/Users/jorge/Documents/hackatonWeb3/pruebas/fidelizame-app/src/contracts/NegocioFidelizado.sol",
  "compiler": {
    "name": "solc",
    "version": "0.8.8+commit.dddeac2f.Emscripten.clang"
  },
  "schemaVersion": "3.4.10",
  "updatedAt": "2022-10-28T15:59:14.890Z",
  "networkType": "ethereum",
  "devdoc": {
    "kind": "dev",
    "methods": {
      "allowance(address,address)": {
        "details": "See {IERC20-allowance}."
      },
      "approve(address,uint256)": {
        "details": "See {IERC20-approve}. NOTE: If `amount` is the maximum `uint256`, the allowance is not updated on `transferFrom`. This is semantically equivalent to an infinite approval. Requirements: - `spender` cannot be the zero address."
      },
      "balanceOf(address)": {
        "details": "See {IERC20-balanceOf}."
      },
      "decimals()": {
        "details": "Returns the number of decimals used to get its user representation. For example, if `decimals` equals `2`, a balance of `505` tokens should be displayed to a user as `5.05` (`505 / 10 ** 2`). Tokens usually opt for a value of 18, imitating the relationship between Ether and Wei. This is the value {ERC20} uses, unless this function is overridden; NOTE: This information is only used for _display_ purposes: it in no way affects any of the arithmetic of the contract, including {IERC20-balanceOf} and {IERC20-transfer}."
      },
      "decreaseAllowance(address,uint256)": {
        "details": "Atomically decreases the allowance granted to `spender` by the caller. This is an alternative to {approve} that can be used as a mitigation for problems described in {IERC20-approve}. Emits an {Approval} event indicating the updated allowance. Requirements: - `spender` cannot be the zero address. - `spender` must have allowance for the caller of at least `subtractedValue`."
      },
      "increaseAllowance(address,uint256)": {
        "details": "Atomically increases the allowance granted to `spender` by the caller. This is an alternative to {approve} that can be used as a mitigation for problems described in {IERC20-approve}. Emits an {Approval} event indicating the updated allowance. Requirements: - `spender` cannot be the zero address."
      },
      "name()": {
        "details": "Returns the name of the token."
      },
      "symbol()": {
        "details": "Returns the symbol of the token, usually a shorter version of the name."
      },
      "totalSupply()": {
        "details": "See {IERC20-totalSupply}."
      },
      "transfer(address,uint256)": {
        "details": "See {IERC20-transfer}. Requirements: - `to` cannot be the zero address. - the caller must have a balance of at least `amount`."
      },
      "transferFrom(address,address,uint256)": {
        "details": "See {IERC20-transferFrom}. Emits an {Approval} event indicating the updated allowance. This is not required by the EIP. See the note at the beginning of {ERC20}. NOTE: Does not update the allowance if the current allowance is the maximum `uint256`. Requirements: - `from` and `to` cannot be the zero address. - `from` must have a balance of at least `amount`. - the caller must have allowance for ``from``'s tokens of at least `amount`."
      }
    },
    "version": 1
  },
  "userdoc": {
    "kind": "user",
    "methods": {},
    "version": 1
  }
}